{
  "_format": "hh-sol-artifact-1",
  "contractName": "Raffle",
  "sourceName": "contracts/Raffle.sol",
  "abi": [
    {
      "inputs": [
        {
          "internalType": "address",
          "name": "vrfCoordinatorV2",
          "type": "address"
        },
        {
          "internalType": "uint256",
          "name": "entranceFee",
          "type": "uint256"
        },
        {
          "internalType": "bytes32",
          "name": "gasLane",
          "type": "bytes32"
        },
        {
          "internalType": "uint64",
          "name": "subscriptionId",
          "type": "uint64"
        },
        {
          "internalType": "uint32",
          "name": "callbackGasLimit",
          "type": "uint32"
        },
        {
          "internalType": "uint256",
          "name": "interval",
          "type": "uint256"
        }
      ],
      "stateMutability": "nonpayable",
      "type": "constructor"
    },
    {
      "inputs": [
        {
          "internalType": "address",
          "name": "have",
          "type": "address"
        },
        {
          "internalType": "address",
          "name": "want",
          "type": "address"
        }
      ],
      "name": "OnlyCoordinatorCanFulfill",
      "type": "error"
    },
    {
      "inputs": [],
      "name": "Raffle__NotEnoughETHEntered",
      "type": "error"
    },
    {
      "inputs": [],
      "name": "Raffle__TransferFailed",
      "type": "error"
    },
    {
      "anonymous": false,
      "inputs": [
        {
          "indexed": true,
          "internalType": "address",
          "name": "player",
          "type": "address"
        }
      ],
      "name": "RaffleEnter",
      "type": "event"
    },
    {
      "anonymous": false,
      "inputs": [
        {
          "indexed": true,
          "internalType": "uint256",
          "name": "requestId",
          "type": "uint256"
        }
      ],
      "name": "RequestedRaffleWinner",
      "type": "event"
    },
    {
      "anonymous": false,
      "inputs": [
        {
          "indexed": true,
          "internalType": "address",
          "name": "winner",
          "type": "address"
        }
      ],
      "name": "WinnerPicked",
      "type": "event"
    },
    {
      "inputs": [],
      "name": "enterRaffle",
      "outputs": [],
      "stateMutability": "payable",
      "type": "function"
    },
    {
      "inputs": [],
      "name": "getEntranceFee",
      "outputs": [
        {
          "internalType": "uint256",
          "name": "",
          "type": "uint256"
        }
      ],
      "stateMutability": "view",
      "type": "function"
    },
    {
      "inputs": [
        {
          "internalType": "uint256",
          "name": "index",
          "type": "uint256"
        }
      ],
      "name": "getPlayer",
      "outputs": [
        {
          "internalType": "address",
          "name": "",
          "type": "address"
        }
      ],
      "stateMutability": "view",
      "type": "function"
    },
    {
      "inputs": [],
      "name": "getRecentWinner",
      "outputs": [
        {
          "internalType": "address",
          "name": "",
          "type": "address"
        }
      ],
      "stateMutability": "view",
      "type": "function"
    },
    {
      "inputs": [
        {
          "internalType": "uint256",
          "name": "requestId",
          "type": "uint256"
        },
        {
          "internalType": "uint256[]",
          "name": "randomWords",
          "type": "uint256[]"
        }
      ],
      "name": "rawFulfillRandomWords",
      "outputs": [],
      "stateMutability": "nonpayable",
      "type": "function"
    },
    {
      "inputs": [],
      "name": "requestRandomWinner",
      "outputs": [],
      "stateMutability": "nonpayable",
      "type": "function"
    }
  ],
  "bytecode": "0x6101606040523480156200001257600080fd5b5060405162000eed38038062000eed833981810160405281019062000038919062000178565b858073ffffffffffffffffffffffffffffffffffffffff1660808173ffffffffffffffffffffffffffffffffffffffff1660601b81525050508460a081815250508573ffffffffffffffffffffffffffffffffffffffff1660e08173ffffffffffffffffffffffffffffffffffffffff1660601b815250508361010081815250508267ffffffffffffffff166101208167ffffffffffffffff1660c01b815250508163ffffffff166101408163ffffffff1660e01b815250508060c0818152505050505050505062000307565b600081519050620001168162000285565b92915050565b6000815190506200012d816200029f565b92915050565b6000815190506200014481620002b9565b92915050565b6000815190506200015b81620002d3565b92915050565b6000815190506200017281620002ed565b92915050565b60008060008060008060c0878903121562000198576200019762000280565b5b6000620001a889828a0162000105565b9650506020620001bb89828a0162000133565b9550506040620001ce89828a016200011c565b9450506060620001e189828a0162000161565b9350506080620001f489828a016200014a565b92505060a06200020789828a0162000133565b9150509295509295509295565b6000620002218262000232565b9050919050565b6000819050919050565b600073ffffffffffffffffffffffffffffffffffffffff82169050919050565b6000819050919050565b600063ffffffff82169050919050565b600067ffffffffffffffff82169050919050565b600080fd5b620002908162000214565b81146200029c57600080fd5b50565b620002aa8162000228565b8114620002b657600080fd5b50565b620002c48162000252565b8114620002d057600080fd5b50565b620002de816200025c565b8114620002ea57600080fd5b50565b620002f8816200026c565b81146200030457600080fd5b50565b60805160601c60a05160c05160e05160601c610100516101205160c01c6101405160e01c610b746200037960003960006103cf015260006103ac0152600061038b0152600061034f0152600050506000818161013b015261022101526000818161016101526101b50152610b746000f3fe6080604052600436106100555760003560e01c806309bc33a71461005a5780631fe543e3146100855780632cfcc539146100ae578063473f1ddc146100b8578063522a1f0b146100e3578063e55ae4e8146100fa575b600080fd5b34801561006657600080fd5b5061006f610137565b60405161007c9190610921565b60405180910390f35b34801561009157600080fd5b506100ac60048036038101906100a7919061079c565b61015f565b005b6100b661021f565b005b3480156100c457600080fd5b506100cd610321565b6040516100da919061088a565b60405180910390f35b3480156100ef57600080fd5b506100f861034b565b005b34801561010657600080fd5b50610121600480360381019061011c9190610742565b610494565b60405161012e919061088a565b60405180910390f35b60007f0000000000000000000000000000000000000000000000000000000000000000905090565b7f000000000000000000000000000000000000000000000000000000000000000073ffffffffffffffffffffffffffffffffffffffff163373ffffffffffffffffffffffffffffffffffffffff161461021157337f00000000000000000000000000000000000000000000000000000000000000006040517f1cf993f40000000000000000000000000000000000000000000000000000000081526004016102089291906108a5565b60405180910390fd5b61021b82826104db565b5050565b7f0000000000000000000000000000000000000000000000000000000000000000341015610279576040517fbd4e069500000000000000000000000000000000000000000000000000000000815260040160405180910390fd5b6000339080600181540180825580915050600190039060005260206000200160009091909190916101000a81548173ffffffffffffffffffffffffffffffffffffffff021916908373ffffffffffffffffffffffffffffffffffffffff1602179055503373ffffffffffffffffffffffffffffffffffffffff167f0805e1d667bddb8a95f0f09880cf94f403fb596ce79928d9f29b74203ba284d460405160405180910390a2565b6000600160009054906101000a900473ffffffffffffffffffffffffffffffffffffffff16905090565b60007f000000000000000000000000000000000000000000000000000000000000000073ffffffffffffffffffffffffffffffffffffffff16635d3b1d307f00000000000000000000000000000000000000000000000000000000000000007f000000000000000000000000000000000000000000000000000000000000000060037f000000000000000000000000000000000000000000000000000000000000000060016040518663ffffffff1660e01b81526004016104109594939291906108ce565b602060405180830381600087803b15801561042a57600080fd5b505af115801561043e573d6000803e3d6000fd5b505050506040513d601f19601f82011682018060405250810190610462919061076f565b9050807fcd6e45c8998311cab7e9d4385596cac867e20a0587194b954fa3a731c93ce78b60405160405180910390a250565b60008082815481106104a9576104a8610aa1565b5b9060005260206000200160009054906101000a900473ffffffffffffffffffffffffffffffffffffffff169050919050565b60008080549050826000815181106104f6576104f5610aa1565b5b60200260200101516105089190610a41565b9050600080828154811061051f5761051e610aa1565b5b9060005260206000200160009054906101000a900473ffffffffffffffffffffffffffffffffffffffff16905080600160006101000a81548173ffffffffffffffffffffffffffffffffffffffff021916908373ffffffffffffffffffffffffffffffffffffffff16021790555060008173ffffffffffffffffffffffffffffffffffffffff16476040516105b390610875565b60006040518083038185875af1925050503d80600081146105f0576040519150601f19603f3d011682016040523d82523d6000602084013e6105f5565b606091505b5050905080610630576040517fa1d04b3900000000000000000000000000000000000000000000000000000000815260040160405180910390fd5b8173ffffffffffffffffffffffffffffffffffffffff167f5b690ec4a06fe979403046eaeea5b3ce38524683c3001f662c8b5a829632f7df60405160405180910390a25050505050565b600061068d61068884610961565b61093c565b905080838252602082019050828560208602820111156106b0576106af610b04565b5b60005b858110156106e057816106c68882610718565b8452602084019350602083019250506001810190506106b3565b5050509392505050565b600082601f8301126106ff576106fe610aff565b5b813561070f84826020860161067a565b91505092915050565b60008135905061072781610b27565b92915050565b60008151905061073c81610b27565b92915050565b60006020828403121561075857610757610b0e565b5b600061076684828501610718565b91505092915050565b60006020828403121561078557610784610b0e565b5b60006107938482850161072d565b91505092915050565b600080604083850312156107b3576107b2610b0e565b5b60006107c185828601610718565b925050602083013567ffffffffffffffff8111156107e2576107e1610b09565b5b6107ee858286016106ea565b9150509250929050565b61080181610998565b82525050565b610810816109aa565b82525050565b600061082360008361098d565b915061082e82610b24565b600082019050919050565b610842816109b4565b82525050565b610851816109e2565b82525050565b610860816109ec565b82525050565b61086f816109fc565b82525050565b600061088082610816565b9150819050919050565b600060208201905061089f60008301846107f8565b92915050565b60006040820190506108ba60008301856107f8565b6108c760208301846107f8565b9392505050565b600060a0820190506108e36000830188610807565b6108f06020830187610866565b6108fd6040830186610839565b61090a6060830185610857565b6109176080830184610857565b9695505050505050565b60006020820190506109366000830184610848565b92915050565b6000610946610957565b90506109528282610a10565b919050565b6000604051905090565b600067ffffffffffffffff82111561097c5761097b610ad0565b5b602082029050602081019050919050565b600081905092915050565b60006109a3826109c2565b9050919050565b6000819050919050565b600061ffff82169050919050565b600073ffffffffffffffffffffffffffffffffffffffff82169050919050565b6000819050919050565b600063ffffffff82169050919050565b600067ffffffffffffffff82169050919050565b610a1982610b13565b810181811067ffffffffffffffff82111715610a3857610a37610ad0565b5b80604052505050565b6000610a4c826109e2565b9150610a57836109e2565b925082610a6757610a66610a72565b5b828206905092915050565b7f4e487b7100000000000000000000000000000000000000000000000000000000600052601260045260246000fd5b7f4e487b7100000000000000000000000000000000000000000000000000000000600052603260045260246000fd5b7f4e487b7100000000000000000000000000000000000000000000000000000000600052604160045260246000fd5b600080fd5b600080fd5b600080fd5b600080fd5b6000601f19601f8301169050919050565b50565b610b30816109e2565b8114610b3b57600080fd5b5056fea2646970667358221220540deff49d9924dc6092b99ddb2d28e46e3e0ac9298d172b06f34dcd6dfd8bb964736f6c63430008070033",
  "linkReferences": {},
  "deployedLinkReferences": {}
}